{
  "abi": [
    {
      "inputs": [],
      "stateMutability": "nonpayable",
      "type": "constructor"
    },
    {
      "anonymous": false,
      "inputs": [
        {
          "indexed": true,
          "internalType": "bytes32",
          "name": "configHash",
          "type": "bytes32"
        }
      ],
      "name": "GrandPrixAdded",
      "type": "event"
    },
    {
      "anonymous": false,
      "inputs": [
        {
          "indexed": true,
          "internalType": "bytes32",
          "name": "configHash",
          "type": "bytes32"
        }
      ],
      "name": "GrandPrixDeleted",
      "type": "event"
    },
    {
      "inputs": [
        {
          "internalType": "uint256",
          "name": "startTime",
          "type": "uint256"
        },
        {
          "internalType": "uint256",
          "name": "endTime",
          "type": "uint256"
        },
        {
          "internalType": "bytes32",
          "name": "configHash",
          "type": "bytes32"
        },
        {
          "internalType": "address",
          "name": "parentAddress",
          "type": "address"
        },
        {
          "internalType": "uint256",
          "name": "seasonId",
          "type": "uint256"
        }
      ],
      "name": "addGrandPrix",
      "outputs": [],
      "stateMutability": "nonpayable",
      "type": "function"
    },
    {
      "inputs": [
        {
          "internalType": "uint256",
          "name": "",
          "type": "uint256"
        }
      ],
      "name": "admins",
      "outputs": [
        {
          "internalType": "address",
          "name": "",
          "type": "address"
        }
      ],
      "stateMutability": "view",
      "type": "function"
    },
    {
      "inputs": [
        {
          "internalType": "bytes32",
          "name": "",
          "type": "bytes32"
        }
      ],
      "name": "configHashToMetadata",
      "outputs": [
        {
          "internalType": "uint256",
          "name": "startTime",
          "type": "uint256"
        },
        {
          "internalType": "uint256",
          "name": "endTime",
          "type": "uint256"
        },
        {
          "internalType": "bytes32",
          "name": "configHash",
          "type": "bytes32"
        },
        {
          "internalType": "address",
          "name": "parentAddress",
          "type": "address"
        },
        {
          "internalType": "uint256",
          "name": "seasonId",
          "type": "uint256"
        }
      ],
      "stateMutability": "view",
      "type": "function"
    },
    {
      "inputs": [],
      "name": "contractOwner",
      "outputs": [
        {
          "internalType": "address",
          "name": "",
          "type": "address"
        }
      ],
      "stateMutability": "view",
      "type": "function"
    },
    {
      "inputs": [
        {
          "internalType": "bytes32",
          "name": "_configHash",
          "type": "bytes32"
        }
      ],
      "name": "deleteRound",
      "outputs": [],
      "stateMutability": "nonpayable",
      "type": "function"
    },
    {
      "inputs": [],
      "name": "getAllAdmins",
      "outputs": [
        {
          "internalType": "address[]",
          "name": "",
          "type": "address[]"
        }
      ],
      "stateMutability": "view",
      "type": "function"
    },
    {
      "inputs": [],
      "name": "getAllGrandPrix",
      "outputs": [
        {
          "components": [
            {
              "internalType": "uint256",
              "name": "startTime",
              "type": "uint256"
            },
            {
              "internalType": "uint256",
              "name": "endTime",
              "type": "uint256"
            },
            {
              "internalType": "bytes32",
              "name": "configHash",
              "type": "bytes32"
            },
            {
              "internalType": "address",
              "name": "parentAddress",
              "type": "address"
            },
            {
              "internalType": "uint256",
              "name": "seasonId",
              "type": "uint256"
            }
          ],
          "internalType": "struct Registry.GrandPrixMetadata[]",
          "name": "",
          "type": "tuple[]"
        }
      ],
      "stateMutability": "view",
      "type": "function"
    },
    {
      "inputs": [
        {
          "internalType": "uint256",
          "name": "",
          "type": "uint256"
        }
      ],
      "name": "grandPrixList",
      "outputs": [
        {
          "internalType": "uint256",
          "name": "startTime",
          "type": "uint256"
        },
        {
          "internalType": "uint256",
          "name": "endTime",
          "type": "uint256"
        },
        {
          "internalType": "bytes32",
          "name": "configHash",
          "type": "bytes32"
        },
        {
          "internalType": "address",
          "name": "parentAddress",
          "type": "address"
        },
        {
          "internalType": "uint256",
          "name": "seasonId",
          "type": "uint256"
        }
      ],
      "stateMutability": "view",
      "type": "function"
    },
    {
      "inputs": [
        {
          "internalType": "address",
          "name": "",
          "type": "address"
        }
      ],
      "name": "isAdmin",
      "outputs": [
        {
          "internalType": "bool",
          "name": "",
          "type": "bool"
        }
      ],
      "stateMutability": "view",
      "type": "function"
    },
    {
      "inputs": [
        {
          "internalType": "address",
          "name": "admin",
          "type": "address"
        },
        {
          "internalType": "bool",
          "name": "allowed",
          "type": "bool"
        }
      ],
      "name": "setAdmin",
      "outputs": [],
      "stateMutability": "nonpayable",
      "type": "function"
    },
    {
      "inputs": [
        {
          "internalType": "address",
          "name": "newOwner",
          "type": "address"
        }
      ],
      "name": "setContractOwner",
      "outputs": [],
      "stateMutability": "nonpayable",
      "type": "function"
    }
  ],
  "bytecode": {
    "object": "0x608060405234801561001057600080fd5b5060008054336001600160a01b031991821681178355808352600260205260408320805460ff1916600190811790915560048054918201815584527f8a35acfbc15ff81a39ae7d344fd709f28e8600b4aa8c65c6b64bfe7fe36bd19b018054909216179055610ca390819061008590396000f3fe608060405234801561001057600080fd5b50600436106100a95760003560e01c80638abc0568116100715780638abc0568146101b4578063a34d42b8146101c7578063c9d957eb146101da578063ce606ee0146101ed578063e8f846e314610200578063e9523c971461021357600080fd5b80630c5ab9a3146100ae57806314bfd6d01461012c57806324d7806c146101575780632c1204a61461018a5780634b0bddd21461019f575b600080fd5b6100f66100bc366004610a92565b600160208190526000918252604090912080549181015460028201546003830154600490930154919290916001600160a01b039091169085565b604080519586526020860194909452928401919091526001600160a01b03166060830152608082015260a0015b60405180910390f35b61013f61013a366004610a92565b610228565b6040516001600160a01b039091168152602001610123565b61017a610165366004610ac7565b60026020526000908152604090205460ff1681565b6040519015158152602001610123565b610192610252565b6040516101239190610ae9565b6101b26101ad366004610b60565b6102e6565b005b6101b26101c2366004610a92565b6104b4565b6101b26101d5366004610ac7565b6105ff565b6100f66101e8366004610a92565b6106c6565b60005461013f906001600160a01b031681565b6101b261020e366004610b9c565b610713565b61021b610993565b6040516101239190610be3565b6004818154811061023857600080fd5b6000918252602090912001546001600160a01b0316905081565b60606003805480602002602001604051908101604052809291908181526020016000905b828210156102dd5760008481526020908190206040805160a08101825260058602909201805483526001808201548486015260028201549284019290925260038101546001600160a01b031660608401526004015460808301529083529092019101610276565b50505050905090565b6000546001600160a01b0316331461033a5760405162461bcd60e51b81526020600482015260126024820152712737ba1031b7b73a3930b1ba1037bbb732b960711b60448201526064015b60405180910390fd5b6001600160a01b0382166103895760405162461bcd60e51b815260206004820152601660248201527543616e277420616464207a65726f206164647265737360501b6044820152606401610331565b8015610400576001600160a01b03821660009081526002602052604090205460ff166103fb57600480546001810182556000919091527f8a35acfbc15ff81a39ae7d344fd709f28e8600b4aa8c65c6b64bfe7fe36bd19b0180546001600160a01b0319166001600160a01b0384161790555b610489565b60005b60045481101561048757826001600160a01b03166004828154811061042a5761042a610c30565b6000918252602090912001546001600160a01b031603610475576004818154811061045757610457610c30565b600091825260209091200180546001600160a01b0319169055610487565b8061047f81610c46565b915050610403565b505b6001600160a01b03919091166000908152600260205260409020805460ff1916911515919091179055565b3360009081526002602052604090205460ff166104ff5760405162461bcd60e51b81526020600482015260096024820152682737ba1030b236b4b760b91b6044820152606401610331565b60005b6003548110156105fb57816003828154811061052057610520610c30565b906000526020600020906005020160020154036105e9576000828152600160208190526040822082815590810182905560028101829055600380820180546001600160a01b031916905560049091019190915580548290811061058557610585610c30565b60009182526020822060059091020181815560018101829055600281018290556003810180546001600160a01b031916905560040181905560405183917f8657075b79e2556f40379691c9aa0cc938a18690db0bb5eeded6c9887dc4cf2391a25050565b806105f381610c46565b915050610502565b5050565b6000546001600160a01b0316331461064e5760405162461bcd60e51b81526020600482015260126024820152712737ba1031b7b73a3930b1ba1037bbb732b960711b6044820152606401610331565b6001600160a01b0381166106a45760405162461bcd60e51b815260206004820152601c60248201527f4f776e65722063616e6e6f74206265207a65726f2061646472657373000000006044820152606401610331565b600080546001600160a01b0319166001600160a01b0392909216919091179055565b600381815481106106d657600080fd5b600091825260209091206005909102018054600182015460028301546003840154600490940154929450909290916001600160a01b039091169085565b3360009081526002602052604090205460ff1661075e5760405162461bcd60e51b81526020600482015260096024820152682737ba1030b236b4b760b91b6044820152606401610331565b61076885856109f5565b6107ad5760405162461bcd60e51b8152602060048201526016602482015275496e76616c69642073746172742f656e642074696d6560501b6044820152606401610331565b6001600160a01b0382166108115760405162461bcd60e51b815260206004820152602560248201527f506172656e7420616464726573732063616e6e6f74206265207a65726f206164604482015264647265737360d81b6064820152608401610331565b6040805160a08101825286815260208082018781528284018781526001600160a01b03808816606086019081526080860188815260008b81526001968790528881209751885594518787019081559351600288019081559151600380890180549286166001600160a01b0319938416178155925160048a0190815581549889018255908752975460059097027fc2575a0e9e593c00f959f8c92f12db2869c3395a3b0502d05e2516446f71f85b81019790975593547fc2575a0e9e593c00f959f8c92f12db2869c3395a3b0502d05e2516446f71f85c87015590547fc2575a0e9e593c00f959f8c92f12db2869c3395a3b0502d05e2516446f71f85d860155547fc2575a0e9e593c00f959f8c92f12db2869c3395a3b0502d05e2516446f71f85e85018054909316911617905591547fc2575a0e9e593c00f959f8c92f12db2869c3395a3b0502d05e2516446f71f85f90910155905184917f1f4ed5821d5332dec0a70323c39620da696dc13a3c8aef84832ab1e7351dbdb891a25050505050565b606060048054806020026020016040519081016040528092919081815260200182805480156109eb57602002820191906000526020600020905b81546001600160a01b031681526001909101906020018083116109cd575b5050505050905090565b60008183106001825b600354811015610a7e578460038281548110610a1c57610a1c610c30565b906000526020600020906005020160000154108015610a5e57508560038281548110610a4a57610a4a610c30565b906000526020600020906005020160010154115b15610a6c5760009150610a7e565b80610a7681610c46565b9150506109fe565b50818015610a895750805b95945050505050565b600060208284031215610aa457600080fd5b5035919050565b80356001600160a01b0381168114610ac257600080fd5b919050565b600060208284031215610ad957600080fd5b610ae282610aab565b9392505050565b602080825282518282018190526000919060409081850190868401855b82811015610b5357815180518552868101518786015285810151868601526060808201516001600160a01b0316908601526080908101519085015260a09093019290850190600101610b06565b5091979650505050505050565b60008060408385031215610b7357600080fd5b610b7c83610aab565b915060208301358015158114610b9157600080fd5b809150509250929050565b600080600080600060a08688031215610bb457600080fd5b853594506020860135935060408601359250610bd260608701610aab565b949793965091946080013592915050565b6020808252825182820181905260009190848201906040850190845b81811015610c245783516001600160a01b031683529284019291840191600101610bff565b50909695505050505050565b634e487b7160e01b600052603260045260246000fd5b600060018201610c6657634e487b7160e01b600052601160045260246000fd5b506001019056fea26469706673582212202b7b72797b7850684dc7f1d99e58d96025425265b861e7c137920cb20ac4668d64736f6c63430008100033",
    "linkReferences": {}
  },
  "methodIdentifiers": {
    "addGrandPrix(uint256,uint256,bytes32,address,uint256)": "e8f846e3",
    "admins(uint256)": "14bfd6d0",
    "configHashToMetadata(bytes32)": "0c5ab9a3",
    "contractOwner()": "ce606ee0",
    "deleteRound(bytes32)": "8abc0568",
    "getAllAdmins()": "e9523c97",
    "getAllGrandPrix()": "2c1204a6",
    "grandPrixList(uint256)": "c9d957eb",
    "isAdmin(address)": "24d7806c",
    "setAdmin(address,bool)": "4b0bddd2",
    "setContractOwner(address)": "a34d42b8"
  },
  "id": 16
}